:100000000C9424010C944C010C944C010C944C0164
:100010000C944C010C944C010C944C010C944C012C
:100020000C944C010C944C010C944C010C944C011C
:100030000C944C010C944C010C944C010C944C010C
:100040000C943F150C944C010C94C9160C94171782
:100050000C944C010C943F040C944C010C944C01F6
:100060000C9468130C944C01036EDB363D9A9999FD
:10007000993DABAAAA2A3E000000803F084AD73B20
:100080003BCE016E84BCBFFDC12F3D6C74319ABD67
:1000900056833DDA3D00C77F11BED9E4BB4C3E918B
:1000A0006BAAAABE000000803F072C7AA5BA6CC5D7
:1000B00090DA3B9365FC8BBC53F810FD3C56928361
:1000C0004DBD879D3AB63DCBC9BF5BBE73DA0FC944
:1000D0003F05A84CCDB2D44EB93836A9020C50B960
:1000E000918688083CA6AAAA2ABE000000803F008C
:1000F000000000240027002A00000000002500283E
:10010000002B000000000023002600290004040446
:1001100004040404040202020202020303030303B0
:10012000030102040810204080010204081020018D
:100130000204081020000000070002010000030470
:1001400006000000000000000000407A10F35A0092
:10015000A0724E18090010A5D4E80000E8764817F0
:100160000000E40B54020000CA9A3B000000E1F5D5
:1001700005000080969800000040420F000000A09B
:100180008601000000102700000000E803000000C6
:10019000006400000000000A0000000000010000F0
:1001A0000000002C76D888DC674F0823DFC1DFAE63
:1001B00059E1B1B796E5E3E453C63AE6519976962C
:1001C000E8E6C28426EB898C9B62ED407C6FFCEFF5
:1001D000BC9C9F40F2BAA56FA5F490055A2AF75C23
:1001E000936B6CF9676DC11BFCE0E40D47FEF520D5
:1001F000E6B500D0ED902E0300943577050080849D
:100200001E080000204E0A000000C80C33333333B0
:100210000F986E12831141EF8D2114893BE655161C
:10022000CFFEE6DB18D1844B381BF77C1D901DA454
:10023000BBE424203284725E228100C9F124ECA147
:10024000E53D27000412FC1711241FBECFEFD8E0B4
:10025000DEBFCDBF11E0A0E0B1E0EEEBF9E302C0FC
:1002600005900D92AA3CB107D9F714E0AAECB1E0D1
:1002700001C01D92A833B107E1F712E0C8E4D2E053
:1002800004C02297FE010E94A21CC434D107C9F702
:100290000E94CB180C94DD1C0C940000EF92FF928E
:1002A0000F931F93F22FF02E47FD02C0E4E001C030
:1002B000E4E1242F332727FD309537FF03C0309525
:1002C00021953F4F4F2D512F0F2FEE2E0E94900161
:1002D0008F2D912F1F910F91FF90EF900895FB01AB
:1002E0009F01E8944230C4F04532B4F44A3029F416
:1002F00097FB1EF4909581959F4F642F77270E945E
:100300008C1C805D8A330CF0895D8193CB01009752
:10031000A1F716F45DE251931082C9010C94CA034F
:10032000A9E0B0E0E6E9F1E00C94AA1C6A01122F02
:10033000A02EBE2C2BE3201718F42CE3922E02C023
:10034000902E9394AE014F5F5F4F27E0092D0E94DE
:10035000F202BC018981E82EFF24C70189709070E8
:10036000019711F4ADE209C0B1FE02C0ABE205C0D5
:10037000B0FC02C0A0E001C0A0E2E3FE3BC0AA23A3
:1003800011F423E001C024E0211710F020E002C0A6
:10039000121B212FEB2CB4FE02C0322F0AC0F60133
:1003A000322F80E202C0819331503323E1F7C20E35
:1003B000D11CAA2319F0F601A1936F01F601319621
:1003C000E2FE05C09EE4D6019C9381E404C09EE653
:1003D000D6019C9381E611968C9391833296DF012E
:1003E000832F90E202C09D9381508823E1F7E30FB1
:1003F000F11D40C0E2FE42C0AA2311F423E001C077
:1004000024E0211710F020E002C0121B212FEB2C5A
:10041000B4FE02C0922F0AC0F601922F80E202C001
:10042000819391509923E1F7C20ED11CAA2319F0B0
:10043000F601A1936F01F6013196E2FE08C089E44E
:10044000D6018C938EE411968C9386E407C089E6DE
:10045000D6018C938EE611968C9386E68183329634
:10046000DF01892F20E202C02D9381508823E1F71C
:10047000E90FF11D10822EEF3FEFAFC016161706E1
:100480001CF041E050E003C0AB014F5F5F4FAA207A
:1004900019F480E090E003C08A2D90E0019620E0FE
:1004A00030E0AA2311F021E030E0240F351F280F9F
:1004B000391F812F90E02817390714F020E002C07F
:1004C000121B212F4B2D50E0CA0180719070B4FC9B
:1004D0000DC0B3FC0BC0F601322F40E202C04193C5
:1004E00031503323E1F7C20ED11C01C0322FAA23B1
:1004F00019F0F601A1936F01892B11F0132F0AC097
:10050000F601132F80E302C0819311501123E1F70C
:10051000C30ED11C092D060FBA8090E1892E912CB3
:100520008E209F20E4FE04C0F1E3BF1609F40150C1
:10053000101614F001E003C0093008F008E09B0138
:1005400077FF02C020E030E0CB010196821B930BC5
:10055000FE013196E80FF91F8EE2F82E3B01601A7A
:1005600071088A2D90E044275527481B590B8FEFBF
:100570002F3F380719F4D601FD926D0162177307FA
:100580002CF06216730614F4808101C080E32150C0
:10059000304031962417350724F0D6018D936D0134
:1005A000E6CF2617370749F4B5E3BB1528F0BB168D
:1005B00021F48114910409F481E3F6018193D601B9
:1005C000812F90E202C09C93815011968823D9F725
:1005D000E10FF11D108220E030E0C9012996EEE024
:1005E0000C94C61C283008F027E03327DA01990F55
:1005F000311D87FD916000966105710539F4326007
:100600002E5F3D9330E32A95E1F708959F3F30F048
:1006100080387105610509F03C5F3C5F3D93913086
:1006200008F08068911DDF93CF931F930F93FF9283
:10063000EF92192F987F9695E92F96959695E90F49
:10064000FF27ED55FE4F99273327EE24FF24A701FE
:10065000E70105900894079428F4360FE71EF81E6A
:10066000491F511D660F771F881F991F0694A1F718
:100670000590079428F4E70EF81E491F561FC11D68
:10068000770F881F991F661F0694A1F7059007949E
:1006900028F4F80E491F561FC71FD11D880F991F38
:1006A000661F771F0694A1F70590079420F4490F61
:1006B000561FC71FD81F990F661F771F881F0694E4
:1006C000A9F784911095177041F0D695C795579565
:1006D0004795F794E7941A95C1F7E9E4F1E0689437
:1006E0001590159135916591959105907FE27395DF
:1006F000E118F10A430B560BC90BD009C0F7E10C06
:10070000F11E431F561FC91FD01D7EF4703311F414
:100710008A95E6CFE894015030F0080F0AF40027DC
:10072000021708F4202F2395022F7A3328F079E35B
:100730007D932A95E9F710C07D932A9589F6069452
:1007400097956795379517951794E118F10A430B1C
:10075000560BC90BD00998F023957E9173957A3387
:1007600008F070E37C932013B8F77E9170617D935D
:1007700030F0839571E37D9370E32A95E1F71124BE
:10078000EF90FF900F911F91CF91DF91992787FDF7
:1007900090950895DC01FC01672F71917723E1F7B3
:1007A000329704C07C916D9370836291AE17BF073E
:1007B000C8F30895BF92CF92DF92EF92FF920F930A
:1007C0001F93CF93DF93C5E4D1E032EDC32E31E028
:1007D000D32E8881992787FD9095FC01EE0FFF1F8E
:1007E000EB56FD4FDC01AB55BD4F60817181BC9074
:1007F0008081918168177907C1F7BB20B9F080E04B
:1008000090E00E94581A7B018C016B2D70E080E013
:1008100090E00E94581A9B01AC01C801B7010E94E8
:10082000BF190E94271AF60171836083219682E026
:1008300090E0C80ED91E91E0C834D90751F620E0E7
:1008400030E0F901EE0FFF1FEB56FD4F11821082D1
:10085000D901AB55BD4F1C9280819181892B89F7BD
:100860002F5F3F4F2330310561F7DF91CF911F910B
:100870000F91FF90EF90DF90CF90BF9008951F925F
:100880000F920FB60F9211242F933F934F936F93B4
:100890007F938F939F93EF93FF93DF93CF9300D03A
:1008A000CDB7DEB7809178008983809179008A8303
:1008B000E0919302F0E0EB55FD4F80818F33E0F43F
:1008C000E0919302F0E0EE0FFF1FEB56FD4F6081C9
:1008D00071814A812981942F80E030E0822B932B13
:1008E000860F971F91838083E0919302F0E0EB5590
:1008F000FD4F80818F5F8083809193028F5F809313
:10090000930280919302837080939302809194026A
:10091000909193028295880F880F807C892B809319
:100920007C0080917A00806480937A000F900F9011
:10093000CF91DF91FF91EF919F918F917F916F9177
:100940004F913F912F910F900FBE0F901F901895D0
:100950008F929F92AF92BF92CF92DF92EF92FF92CF
:100960000F931F934C016B015A01FB016481758148
:1009700086819781FA0120853185428553850E94C1
:10098000A81B7B018C01F6016085718582859385AA
:10099000F50124813581468157810E94A81B9B0166
:1009A000AC01C801B7010E94DA18F40160837183B9
:1009B00082839383F6016085718582859385F50135
:1009C00020813181428153810E94A81B7B018C01CF
:1009D000F6016081718182819381F50120853185E5
:1009E000428553850E94A81B9B01AC01C801B70139
:1009F0000E94DA18F4016483758386839783F60175
:100A00006081718182819381F501248135814681E4
:100A100057810E94A81B7B018C01F60164817581BE
:100A200086819781F50120813181428153810E9425
:100A3000A81B9B01AC01C801B7010E94DA18F401A0
:100A400060877187828793871F910F91FF90EF9046
:100A5000DF90CF90BF90AF909F908F9008952F928E
:100A60003F924F925F926F927F928F929F92AF923E
:100A7000BF92CF92DF92EF92FF920F931F93DF937B
:100A8000CF93CDB7DEB7A4970FB6F894DEBF0FBEF5
:100A9000CDBFBEE56B2EB1E07B2E63010F2EF0E0E3
:100AA000EF2EF0E0FF2EF0E00F2FF0E01F2FF02DE3
:100AB000F601608171818281938124853585468527
:100AC00057850E94A81B9B01AC01C801B7010E9479
:100AD000DB187B018C0184E090E0C80ED91E9AE6F9
:100AE000C91691E0D90621F7C801B70120E030E02E
:100AF00040E05FEB0E94A81B4B015C0116017E01E8
:100B00000894E11CF11C86016701F8016191719163
:100B1000819191918F01A50194010E94A81BF6017A
:100B200061937193819391936F01F1E006371F07F1
:100B300061F7ADE04A2E512C4C0E5D1E085110405D
:100B40006201F80161917191819191918F01A501EB
:100B500094010E94A81BF601619371938193919374
:100B60006F01F1E00A361F0761F78E01035F1F4F27
:100B7000F7016081718182819381F301219131912B
:100B8000419151913F010E94DB18F70161937193EC
:100B9000819391937F01E017F10751F732010AE643
:100BA00011E0F9E1EF2EF12CEC0EFD1EF301608156
:100BB000718182819381F80121913191419151910B
:100BC0008F010E94DB18F3016193719381939193DC
:100BD0003F01EE15FF0551F7CF016E010894C11CCE
:100BE000D11CB601AE01435F5F4F0E94A80429816A
:100BF0003A814B815C81CA01B9010E94A81B20E0A7
:100C000030E040E050E00E94DB187B018C012D8138
:100C10003E814F815885CA01B9010E94A81B9B01E2
:100C2000AC01C801B7010E94DB187B018C0129854A
:100C30003A854B855C85CA01B9010E94A81B9B01BE
:100C4000AC01C801B7010E94DB189B01AC0160E058
:100C500070E080E490E40E94DA1820E030E040E0A8
:100C60005FE30E94A81B4B015C01EE24FF24870177
:100C7000025A1E4FF601EE0DFF1D608171818281C7
:100C80009381A50194010E94A81BF80160837183E0
:100C90008283938384E090E0E80EF91E9CE0E916DD
:100CA000F10429F72D853E854F855889CA01B90180
:100CB0000E94A81B20E030E040E050E00E94DB18DA
:100CC0007B018C0129893A894B895C89CA01B90168
:100CD0000E94A81B9B01AC01C801B7010E94DB1850
:100CE0007B018C012D893E894F89588DCA01B9013C
:100CF0000E94A81B9B01AC01C801B7010E94DB1830
:100D00009B01AC0160E070E080E490E40E94DA189E
:100D100020E030E040E05FE30E94A81B7B018C01F3
:100D2000F20161917191819191912F01A801970137
:100D30000E94A81BF10161937193819391931F010C
:100D40004614570469F7298D3A8D4B8D5C8DCA0185
:100D5000B9010E94A81B20E030E040E050E00E9472
:100D6000DB187B018C012D8D3E8D4F8D58A1CA0162
:100D7000B9010E94A81B9B01AC01C801B7010E94E8
:100D8000DB187B018C0129A13AA14BA15CA1CA010E
:100D9000B9010E94A81B9B01AC01C801B7010E94C8
:100DA000DB189B01AC0160E070E080E490E40E94FD
:100DB000DA1820E030E040E05FE30E94A81B6B01FE
:100DC0007C018E01075E1F4FE6E7AE2EE1E0BE2EEE
:100DD00075E2872E912C8C0E9D1EF8016191719108
:100DE000819191918F01A70196010E94A81BF501A5
:100DF00061937193819391935F010815190569F7C8
:100E0000A4960FB6F894DEBF0FBECDBFCF91DF9191
:100E10001F910F91FF90EF90DF90CF90BF90AF9018
:100E20009F908F907F906F905F904F903F902F900A
:100E300008952F923F924F925F926F927F928F927E
:100E40009F92AF92BF92CF92DF92EF92FF920F9359
:100E50001F93CF93DF933B011A016C01AA24BB249B
:100E60001CE0412E512C460E571E45C0F6016081F4
:100E7000718182819381288139814A815B810E94BD
:100E8000A81B7B018C01F6016481758186819781A5
:100E90002C853D854E855F850E94A81B9B01AC017A
:100EA000C801B7010E94DB187B018C01F601608547
:100EB000718582859385288D398D4A8D5B8D0E9441
:100EC000A81B9B01AC01C801B7010E94DB18F4010B
:100ED00061937193819391934F012496C415D50525
:100EE00029F68CE090E0A80EB91EC80ED91E94E237
:100EF000A916B10429F0E30141018A0C9B1CB6CF6D
:100F0000DF91CF911F910F91FF90EF90DF90CF90E5
:100F1000BF90AF909F908F907F906F905F904F9019
:100F20003F902F9008952F923F924F925F926F9231
:100F30007F928F929F92AF92BF92CF92DF92EF9269
:100F4000FF920F931F93DF93CF9300D000D0CDB7C4
:100F5000DEB7809148019091490197FF09C06091E7
:100F6000DE017091DF012091D2013091D30108C0E0
:100F70006091D2017091D3012091DE013091DF01A7
:100F8000621B730B882777FD8095982F0E945A1A51
:100F900028E03AE843E85CE30E94A81B60930C0257
:100FA00070930D0280930E0290930F0280914A017C
:100FB00090914B0197FF09C06091E0017091E101B0
:100FC0002091D4013091D50108C06091D401709175
:100FD000D5012091E0013091E101621B730B88275C
:100FE00077FD8095982F0E945A1A28E03AE843E846
:100FF0005CE30E94A81B609310027093110280931F
:1010000012029093130280914C0190914D0197FF31
:1010100009C06091E2017091E3012091D601309105
:10102000D70108C06091D6017091D7012091E201EB
:101030003091E301621B730B882777FD8095982F11
:101040000E945A1A28E03AE843E85CE30E94A81B91
:101050006093140270931502809316029093170206
:101060006091F0017091F101882777FD8095982FAC
:101070000E945A1A60930002709301028093020248
:10108000909303026091F2017091F301882777FD3C
:101090008095982F0E945A1A60930402709305025B
:1010A00080930602909307026091F4017091F5011C
:1010B000882777FD8095982F0E945A1A609308021E
:1010C0007093090280930A0290930B02EE24FF248E
:1010D0008701045C1D4FF701E45FFD4FD701A05D60
:1010E000BD4F60817181828193812D913D914D91A0
:1010F0005C910E94DB18D8016D937D938D939C9336
:101100001397E4E0F0E0EE0EFF1EFCE0EF16F104B2
:10111000F9F6EE24FF248701085E1D4FF701E45C19
:10112000FD4FD701AC5DBD4F60817181828193819C
:101130002D913D914D915C910E94DB18D8016D93EA
:101140007D938D939C931397E4E0F0E0EE0EFF1EE9
:10115000FCE0EF16F104F9F60F2EF0E02F2EF0E090
:101160003F2EF0E04F2EF0E05F2EF02D2092820116
:10117000309283014092840150928501E0905A019F
:10118000F0905B0100915C0110915D0157016801D5
:10119000D7FAD094D7F8D0946090200270902102B2
:1011A0008090220290902302C601B501A401930110
:1011B0000E94A81B60938601709387018093880129
:1011C0009093890180911C0290911D02A0911E02B2
:1011D000B0911F0289839A83AB83BC83C801B70196
:1011E00029813A814B815C810E94A81B60938A010E
:1011F00070938B0180938C0190938D01C801B7018E
:10120000A40193010E94A81B60938E0170938F012B
:1012100080939001909391012092920130929301DA
:1012200040929401509295016090180270901902BA
:1012300080901A0290901B02C601B501A40193018F
:101240000E94A81B60939601709397018093980168
:1012500090939901C601B50129813A814B815C8146
:101260000E94A81B60939A0170939B0180939C013C
:1012700090939D01C801B701A40193010E94A81B8E
:1012800060939E0170939F018093A0019093A101B0
:101290002092A2013092A3014092A4015092A50194
:1012A0008EE591E062E871E04FE652E00E94190796
:1012B0000EE5E02E01E0F02E0FE612E0D7016D9171
:1012C0007D918D919C91F8012081318142815381E2
:1012D0000E94DB18D7016D937D938D939C93139798
:1012E00014966D917D918D919C911797F8012481B1
:1012F0003581468157810E94DB18D70114966D9382
:101300007D938D939C93179718966D917D918D91F8
:101310009C911B97F80120853185428553850E9459
:10132000DB18D70118966D937D938D939C931B9733
:10133000ECE0F0E0EE0EFF1E045F1F4FF2E8EF1648
:10134000F1E0FF0609F0BACF0F900F900F900F90C9
:10135000CF91DF911F910F91FF90EF90DF90CF9091
:10136000BF90AF909F908F907F906F905F904F90C5
:101370003F902F9008951F93182F8AE060E00E94FD
:10138000741681E060E00E9474161EBD0DB407FE65
:10139000FDCF8EB58AE061E00E94741681E061E0C5
:1013A0000E9474161F9108958DE00E94BB098AE087
:1013B0000E94BB090895CF93DF93EC0103C02196EF
:1013C0000E94BB0988818823D1F7DF91CF910895CE
:1013D000EF92FF920F931F93DF93CF93CDB7DEB7BA
:1013E00028970FB6F894DEBF0FBECDBF43E022E0D2
:1013F0007E010894E11CF11C87010E944E01C70187
:101400000E94DB0928960FB6F894DEBF0FBECDBF51
:10141000CF91DF911F910F91FF90EF9008950F935F
:101420001F93DF93CF9300D000D000D0CDB7DEB7AD
:101430008E010F5F1F4FB8014AE050E00E946F011C
:10144000C8010E94DB0926960FB6F894DEBF0FBED6
:10145000CDBFCF91DF911F910F910895EF92FF9231
:101460000F931F9380E091E00E94DB0982E091E0FE
:101470000E94DB09609148027091490280914A0202
:1014800090914B0221EE3EE245E652E40E94A81BF9
:101490000E94E80957E0E52E51E0F52EC7010E94B1
:1014A000DB0960914C0270914D0280914E02909147
:1014B0004F0221EE3EE245E652E40E94A81B0E9444
:1014C000E809C7010E94DB09609150027091510246
:1014D000809152029091530221EE3EE245E652E4A1
:1014E0000E94A81B0E94E80989E091E00E94DB09A4
:1014F000E0914501FF27E7FDF09502ED11E0EE0FC9
:10150000FF1FE00FF11F808191810E940F0AC70128
:101510000E94DB09E0914601FF27E7FDF095EE0F01
:10152000FF1FE00FF11F808191810E940F0AC70108
:101530000E94DB0980914701992787FD9095880FCC
:10154000991F080F191FF801808191810E940F0ACD
:10155000C7010E94DB098091EA019091EB010E9492
:101560000F0AC7010E94DB098091EC019091ED0107
:101570000E940F0AC7010E94DB098091EE01909141
:10158000EF010E940F0AC7010E94DB098091F6015A
:101590009091F7010E940F0AC7010E94DB09809118
:1015A000F8019091F9010E940F0AC7010E94DB091E
:1015B0008091FA019091FB010E940F0A0E94D409C8
:1015C0001F910F91FF90EF9008950F931F930BE0E1
:1015D00013E06091A8017091A901C8010E94CA118D
:1015E000C80162E00E944C12C80160E00E944C12E7
:1015F000C8010E948F121F910F910895EF92FF92E0
:101600000F931F93DF93CF9300D000D000D0CDB7BE
:10161000DEB76091A8017091A9018BE093E00E9470
:10162000CA118BE093E063E00E944C128BE093E0E0
:101630000E948F126091A8017091A9018BE093E044
:1016400046E050E00E94A01200E010E07E01089405
:10165000E11CF11C0AC08BE093E00E94DD11F70150
:10166000E00FF11F80830F5F1F4F8BE093E00E941C
:10167000D411892B81F78BE093E00E948F12063002
:10168000110509F043C03B8120E08C8190E0282BBC
:10169000392B8091540190915501AC01249FC001D8
:1016A000259F900D349F900D11249093F701809306
:1016B000F601398120E08A8190E0282B392B809136
:1016C000560190915701AC01249FC001259F900DB8
:1016D000349F900D11249093F9018093F8013D817E
:1016E00020E08E8190E0282B392B80915801909139
:1016F0005901AC01249FC001259F900D349F900D8E
:1017000011249093FB018093FA0106C086E194E0D6
:101710006EE071E00E94B81826960FB6F894DEBF0E
:101720000FBECDBFCF91DF911F910F91FF90EF9032
:101730000895EF92FF920F931F93DF93CF9300D002
:1017400000D000D0CDB7DEB76091A6017091A7019F
:101750008BE093E00E94CA118BE093E062E30E9469
:101760004C128BE093E00E948F126091A601709161
:10177000A7018BE093E00E94CA116091A6017091CD
:10178000A7018BE093E046E050E00E94A01200E049
:1017900010E07E010894E11CF11C0AC08BE093E08C
:1017A0000E94DD11F701E00FF11F80830F5F1F4FD3
:1017B0008BE093E00E94D411892B81F78BE093E0BA
:1017C0000E948F120630110509F06DC09A8180E0E9
:1017D000698170E0682B792B7093ED016093EC01C7
:1017E0009C8180E02B8130E0282B392B3093EB015A
:1017F0002093EA019E8180E04D8150E0482B592BD7
:101800005093EF014093EE013093D9012093D8011A
:101810007093DB016093DA015093DD014093DC01AA
:101820008091E4019091E501281B390B80914E01D4
:1018300090914F01FC012E9FC0012F9F900D3E9F64
:10184000900D11249093F1018093F0018091E601B5
:101850009091E701681B790B8091500190915101A3
:101860009C01629FC001639F900D729F900D112497
:101870009093F3018093F2018091E8019091E90146
:10188000481B590B8091520190915301FC014E9FCE
:10189000C0014F9F900D5E9F900D11249093F50114
:1018A0008093F40106C086E194E06DE171E00E944E
:1018B000B81826960FB6F894DEBF0FBECDBFCF91F5
:1018C000DF911F910F91FF90EF9008950F931F9359
:1018D0000BE013E06091A6017091A701C8010E947E
:1018E000CA11C8016DE20E944C12C80168E00E9452
:1018F0004C12C8010E948F1265E070E080E090E019
:101900000E94A1156091A6017091A701C8010E94D3
:10191000CA11C80161E30E944C12C80168E00E942C
:101920004C12C8010E948F1265E070E080E090E0E8
:101930000E94A1156091A6017091A701C8010E94A3
:10194000CA11C8016CE20E944C12C80169E00E94F1
:101950004C12C8010E948F1265E070E080E090E0B8
:101960000E94A1151F910F9108958BE093E00E94B2
:10197000A4120895609176017091770180917801A9
:10198000909179010E943F19905860934C02709396
:101990004D0280934E0290934F0260917A017091B4
:1019A0007B0180917C0190917D0120917E0130919D
:1019B0007F0140918001509181010E9465196093DF
:1019C00048027093490280934A0290934B026091BF
:1019D0006A0170916B0180916C0190916D01209171
:1019E0005E0130915F0140916001509161010E9460
:1019F0006519609350027093510280935202909344
:101A0000530208956F927F928F929F92AF92BF92EE
:101A1000CF92DF92EF92FF920F931F93CF93DF93BA
:101A20002091000230910102409102025091030284
:101A3000E0900402F0900502009106021091070266
:101A4000609008027090090280900A0290900B0248
:101A5000CA01B9010E94A81B5B016C01C801B70152
:101A6000A80197010E94A81B9B01AC01C601B5010A
:101A70000E94DB187B018C01C401B301A401930116
:101A80000E94A81B9B01AC01C801B7010E94DB1892
:101A90000E94151C20E030E048E753E40E94BF1983
:101AA0009B01AC0160E070E080E89FE30E94DA18DF
:101AB0007B018C0120E030E040E050E00E949D1B63
:101AC00018164CF4C801B70120E030E040E050ECBB
:101AD0000E94A81B06C0C801B701A80197010E9477
:101AE000DB1820E030E040E85FE30E94DB1820E0F4
:101AF00030E040E050E00E94B81988235CF40F2EDB
:101B0000F0E0CF2EF0E0DF2EF0E0EF2EF0E0FF2E41
:101B1000F02D53C0C801B70120E030E040E050E0B4
:101B20000E949D1B18164CF4C801B70120E030E05C
:101B300040E050EC0E94A81B06C0C801B701A801F4
:101B400097010E94DB1820E030E040E85FE30E944C
:101B5000DB1820E030E040E85FE30E949D1B181690
:101B60005CF40F2EF0E0CF2EF0E0DF2EF0E8EF2E49
:101B7000FFE3FF2EF02D21C0C801B70120E030E0C7
:101B800040E050E00E949D1B18164CF4C801B701BC
:101B900020E030E040E050EC0E94A81B06C0C801E5
:101BA000B701A80197010E94DB1820E030E040E86F
:101BB0005FE30E94DB186B017C0184E592E060E04A
:101BC00072E046E751E00E94A804C701B6012AE08E
:101BD00037ED43EA5CE30E94A81B4B015C01C0E0C7
:101BE000D0E08E010C5D1D4FFE01EC5AFD4F60816F
:101BF000718182819381A50194010E94A81BF80143
:101C000060837183828393832496CC30D10549F716
:101C1000C701B6012CEA35EC47EA57E30E94A81B3E
:101C20006B017C01C0E0D0E08E0103551D4FFE0129
:101C3000EC5AFD4F6081718182819381A7019601E9
:101C40000E94A81BF801608371838283938324968A
:101C5000CC30D10549F730E3832E32E0932E2DEAC4
:101C6000622E22E0722EE4018301688179818A81EB
:101C70009B81F80121913191419151918F010E94F5
:101C8000DB186993799389939993F2E0CC33DF075A
:101C900061F7E090FC01F090FD010091FE011091D0
:101CA000FF01C801B7010E94BC195B016C01C801AA
:101CB000B7010E940B1C20915E0130915F014091A1
:101CC0006001509161010E94A81B7B018C01C6013B
:101CD000B50120916A0130916B0140916C015091E6
:101CE0006D010E94A81B9B01AC01C801B7010E94B5
:101CF000DA187B018C01C6E7D1E090E6C92E92E0AC
:101D0000D92E6991799189919991A80197010E94A1
:101D1000A81BF60161937193819391936F01F1E098
:101D2000C238DF0771F7C0E0D0E08E0107541D4FC5
:101D3000FE01E05AFD4F60817181828193812AE921
:101D400039E949E95FE30E94A81BF80160837183C8
:101D5000828393832496CC30D10539F7C4E2D2E054
:101D600009EB12E0688179818A819B81F8012191D8
:101D70003191419151918F010E94DB1869937993C0
:101D800089939993F2E0C033DF0761F7C0E0D0E0B8
:101D90008E0103551D4FFE01E05AFD4F6081718198
:101DA000828193812CEA35EC47EA57E30E94A81B15
:101DB000F80160837183828393832496CC30D105AC
:101DC00039F7F4016081718182819381F30121915E
:101DD0003191419151913F010E94DB18F4016193CF
:101DE0007193819391934F01FCE38F16F2E09F066C
:101DF00041F7DF91CF911F910F91FF90EF90DF900E
:101E0000CF90BF90AF909F908F907F906F900895EC
:101E10002F923F924F925F926F927F928F929F92FA
:101E2000AF92BF92CF92DF92EF92FF920F931F93E8
:101E3000DF93CF93CDB7DEB72C970FB6F894DEBF04
:101E40000FBECDBFE0904802F090490200914A02D7
:101E500010914B02C801B7010E94BC1969877A87AB
:101E60008B879C87C801B7010E940B1C6D837E8302
:101E70008F839887E0904C02F0904D0200914E02C3
:101E800010914F02C801B7010E94BC195B016C019F
:101E9000C801B7010E940B1C69837A838B839C83E2
:101EA0006091F8017091F901882777FD8095982F4E
:101EB0000E945A1A3B014C016091FA017091FB019A
:101EC000882777FD8095982F0E945A1A1B012C01B4
:101ED000C401B30129853A854B855C850E94A81B06
:101EE0007B018C01C201B1012D813E814F8158855A
:101EF0000E94A81B9B01AC01C801B7010E94DA181F
:101F00007B018C0117FB109517F910956091F60174
:101F10007091F701882777FD8095982F0E945A1AB3
:101F2000A60195010E94A81B5B016C01C401B301CD
:101F30002D813E814F8158850E94A81B29813A81BD
:101F40004B815C810E94A81B9B01AC01C601B501BD
:101F50000E94DB185B016C01C201B10129853A8541
:101F60004B855C850E94A81B29813A814B815C814D
:101F70000E94A81B9B01AC01C601B5010E94DB18A1
:101F80009B01AC01C801B7010E9465196093FC0177
:101F90007093FD018093FE019093FF012C960FB684
:101FA000F894DEBF0FBECDBFCF91DF911F910F918F
:101FB000FF90EF90DF90CF90BF90AF909F908F9069
:101FC0007F906F905F904F903F902F900895EF9289
:101FD000FF920F931F930E9493152091CA01309195
:101FE000CB014091CC015091CD01621B730B840B4E
:101FF000950B643171058105910508F4F7C0809156
:102000006C0290916D02019690936D0280936C0228
:102010002093CE013093CF014093D0015093D10152
:102020000E9493159B01AC012093CA013093CB0110
:102030004093CC015093CD018091CE019091CF017E
:10204000A091D001B091D10182179307A407B507E1
:10205000BCF4281B390B4A0B5B0BCA01B9010E9467
:102060005A1A20E030E04AE754E40E94BF19609316
:102070005A0170935B0180935C0190935D010CC0E9
:1020800080E090E0A0E0B0E080935A0190935B0183
:10209000A0935C01B0935D010E94DA030E94990B4A
:1020A00080916C0290916D02069740F010926D0243
:1020B00010926C020E94FE0A0E94080F0E94930771
:1020C0000E942F050E94020D0E94BA0C0E942E0A47
:1020D000E0900C02F0900D0200910E0210910F02A0
:1020E000C801B70120E030E040E050E00E949D1BB5
:1020F00018165CF4C801B70126E33DE847EA50E44E
:102100000E949D1B87FF5AC00BC0C801B70126E380
:102110003DE847EA50EC0E94B81918160CF04EC082
:10212000E0901002F090110200911202109113023F
:10213000C801B70120E030E040E050E00E949D1B64
:1021400018165CF4C801B70126E33DE847EA50E4FD
:102150000E949D1B87FF32C00AC0C801B70126E359
:102160003DE847EA50EC0E94B81918163CF5E0909B
:102170001402F09015020091160210911702C80186
:10218000B70120E030E040E050E00E949D1B1816AF
:102190005CF4C801B70126E33DE847EA50E40E9439
:1021A0009D1B87FF0BC010C0C801B70126E33DE8A7
:1021B00047EA50EC0E94B819181634F080916E026C
:1021C000823348F4865F05C080916E02882319F03F
:1021D000815080936E0280916E02882319F08DE009
:1021E00060E002C08DE061E00E9474161F910F91C3
:1021F000FF90EF900895CF92DF92EF92FF920F93AE
:102200001F93CF93DF938DE061E00E94351681E04C
:1022100061E00E9435168AE061E00E94351681E097
:1022200061E00E9474168AE061E00E9474160E94C8
:10223000281585E00E94171581E080939402809113
:102240007A00886880937A0080917A008064809315
:102250007A000E94B50C0E94660C0E94990B8CE2D9
:1022600091E00E94DB090E94D4098DE060E00E94A9
:1022700074166CED75E080E090E00E94A1150E945C
:10228000E50A0E94DA0364E170E080E090E00E94D9
:10229000A115C0E0D0E05AEEC52E51E0D52E0E9427
:1022A000DA030E94990B0EED11E0A2EDB1E0F80106
:1022B000808191812D913D91820F931F8193919304
:1022C0004AEEE42E41E0F42ECE16DF0689F764E1F3
:1022D00070E080E090E00E94A1152196C032D10507
:1022E000F1F6F7013C978081918160E270E00E94F5
:1022F000791C61937193EE16FF06A9F720915201A4
:102300003091530188E09FEFAC01249FC001259FCD
:10231000900D349F900D11242091E8013091E90136
:10232000820F931F9093E9018093E801F801819156
:1023300091918F010E940F0A0E94D409E016F106C4
:10234000A9F760ED77E080E090E00E94A1158DE0B4
:1023500061E00E9474160E94DA030E949315609354
:10236000CA017093CB018093CC019093CD0164E1BD
:1023700070E080E090E00E94A11510926D02109232
:102380006C02DF91CF911F910F91FF90EF90DF9042
:10239000CF90089581E080930A036093E702109242
:1023A00008031092090308952091E60230E080911D
:1023B000E502281B3109C90108954091E502809189
:1023C000E602481718F02FEF3FEF0AC0E42FF0E0C5
:1023D000EB53FD4F8081282F30E04F5F4093E502A3
:1023E000C9010895E091E5028091E602E81718F02E
:1023F000EFEFFFEF06C0F0E0EB53FD4F8081E82FD9
:10240000F0E0CF010895089510920E0310920D038D
:1024100088EE93E0A0E0B0E080930F039093100368
:10242000A0931103B09312038EEA91E090930C03F2
:1024300080930B030895CF92DF92EF92FF920F9358
:102440001F93CF93DF937C016B018A0180910A0374
:102450008823A1F0C0E0D0E00DC0D701ED91FC9140
:10246000D601AC0FBD1F0190F081E02DC7016C912A
:1024700009952196C017D10780F304C0CB01642FC2
:102480000E944D13C801DF91CF911F910F91FF90D2
:10249000EF90DF90CF900895DF93CF930F92CDB759
:1024A000DEB7FC01698380910A038823C9F080911B
:1024B0000903803238F081E090E09383828320E04A
:1024C00030E015C080910803E82FF0E0E851FD4F9F
:1024D000998190838F5F809308038093090305C0DF
:1024E000CE01019661E00E944D1321E030E0C90168
:1024F0000F90CF91DF9108950F93062F8091E702FF
:1025000068EE72E04091090321E00E94F8121092F7
:1025100008031092090310920A030F91089561E0D5
:102520000E947C120895413208F040E2862F65EC4B
:1025300072E00E94AF121092E5028093E6020895C5
:1025400021E00E94931208951092E5021092E60293
:1025500010920803109209030E94F9140895382F6D
:10256000413210F040E042C0809117038823E1F728
:1025700091E090931703209319038FEF80938403C6
:1025800010923F034150409340034F5F90931803D4
:1025900080911803330F832B8093180380911A03C3
:1025A000813041F410921A03809118038093BB008C
:1025B00085EC01C085EE8093BC00809117038130CB
:1025C000E1F380913F03841710F440913F0320E032
:1025D00030E00AC0FB01E20FF31FD901A15EBC4F3E
:1025E0008C9180832F5F3F4F2417A0F3842F089591
:1025F0000F931F93582F122F413210F081E04AC0E1
:10260000809117038823E1F782E0809317030093FA
:1026100019038FEF8093840310923F03409340038C
:10262000AFE1B3E0FB0102C081918D938E2F861B39
:102630008417D0F31092180380911803550F852B3F
:102640008093180380911A03813041F410921A0389
:10265000809118038093BB0085EC01C085EE8093C8
:10266000BC00112321F0809117038230E1F38091A7
:1026700084038F3F11F480E00DC080918403803289
:1026800011F482E007C080918403803311F084E06C
:1026900001C083E01F910F910895482F613210F01F
:1026A00081E0089580911703843011F082E008954D
:1026B00060936203A1E4B3E0842F9C01F90102C09E
:1026C00081918D938E2F841B8617D0F380E008951F
:1026D0001F920F920FB60F9211242F933F934F9397
:1026E0005F936F937F938F939F93AF93BF93EF937A
:1026F000FF938091B90090E0887F907080369105BB
:1027000009F4F2C081369105CCF58832910509F4BF
:102710007BC089329105B4F48031910509F46FC012
:10272000813191053CF4009709F447C1089709F0FD
:102730004FC165C08831910509F466C0809709F0E2
:1027400047C182C08034910509F4A4C08134910549
:1027500044F48033910509F482C0C89709F038C168
:1027600089C08035910509F489C08835910509F43F
:1027700096C08834910509F02BC1AEC08839910507
:1027800009F413C189399105ECF48837910509F4EE
:10279000ABC0893791054CF48836910509F4A4C083
:1027A0008037910509F014C19FC08838910509F45C
:1027B000FCC08039910509F49DC08038910509F06D
:1027C00007C198C0803B910509F4C6C0813B9105C3
:1027D0004CF4803A910509F49FC0883A910509F0BC
:1027E000F7C0BAC0803C910509F4E3C0883C91056C
:1027F00009F4DFC0883B910509F0EAC0C2C08091AE
:1028000018038093BB00CFC090913F038091400399
:10281000981768F490913F03E92FF0E0E15EFC4FD8
:1028200080818093BB009F5F90933F03BCC08091E9
:102830001903882309F44BC085ED8093BC00809177
:10284000BC0084FDFCCFC2C080E28093840385ED90
:102850008093BC008091BC0084FDFCCFB7C080E3B6
:102860008093840385ED8093BC008091BC0084FD3F
:10287000FCCFACC088E3809384039BC080913F036E
:102880009091BB00E82FF0E0E15EFC4F90838F5FFA
:1028900080933F0390913F038091400382C08091D9
:1028A0003F039091BB00E82FF0E0E15EFC4F908386
:1028B0008F5F80933F0380911903882341F085ED5A
:1028C0008093BC008091BC0084FDFCCF7FC081E080
:1028D00080931A0384EA6EC085ED8093BC008091DA
:1028E000BC0084FDFCCF72C083E08093170310927C
:1028F000830359C080918303803208F056C08091D1
:1029000083039091BB00E82FF0E0ED59FC4F9083DA
:102910008F5F8093830347C080918303803230F4BC
:10292000E0918303F0E0ED59FC4F108285ED809338
:10293000BC008091BC0084FDFCCF10921703609115
:102940008303E0911D03F0911E0383E693E070E0A2
:102950000995109283032DC084E080931703109291
:10296000610310926203E0911B03F0911C0309952F
:1029700080916203882329F481E08093620310929E
:10298000410390916103E92FF0E0EF5BFC4F808100
:102990008093BB009F5F909361039091610380914E
:1029A0006203981710F485EC01C085E88093BC00A1
:1029B0000FC085EC8093BC0009C01092840385EDA4
:1029C0008093BC008091BC0084FDFCCF1092170363
:1029D000FF91EF91BF91AF919F918F917F916F91F7
:1029E0005F914F913F912F910F900FBE0F901F90CD
:1029F00018951092170381E08093190310921A031F
:102A000082E161E00E94741683E161E00E94741625
:102A1000E9EBF0E080818E7F808380818D7F8083F1
:102A200080E28093B80085E48093BC0008952CB5C3
:102A3000382F33702C7F322B3CBD2DB590E095950F
:102A400087959595879581702E7F822B8DBD0895F2
:102A50008AE061E00E9474168AE061E00E94351607
:102A60008CB580618CBD8CB580648CBD8DE061E0DF
:102A70000E9435168BE061E00E94351608951F9282
:102A80000F920FB60F9211242F933F934F935F93A2
:102A90006F937F938F939F93AF93BF9320918903FD
:102AA00030918A0340918B0350918C0370918D0378
:102AB000DA01C9010296A11DB11D672F6A5F6D374A
:102AC00030F06D57DA01C9010396A11DB11D609365
:102AD0008D038093890390938A03A0938B03B09313
:102AE0008C038091850390918603A0918703B09118
:102AF00088030196A11DB11D8093850390938603E1
:102B0000A0938703B0938803BF91AF919F918F915A
:102B10007F916F915F914F913F912F910F900FBED9
:102B20000F901F9018958FB7F894209189033091DA
:102B30008A0340918B0350918C038FBFB901CA0166
:102B400008959B01AC017FB7F89480918503909123
:102B50008603A0918703B091880366B5A89B05C042
:102B60006F3F19F00196A11DB11D7FBFBA2FA92F8C
:102B7000982F8827860F911DA11DB11D63E0880F36
:102B8000991FAA1FBB1F6A95D1F7BC012DC0FFB7C3
:102B9000F8948091850390918603A0918703B0916A
:102BA0008803E6B5A89B05C0EF3F19F00196A11D6B
:102BB000B11DFFBFBA2FA92F982F88278E0F911D07
:102BC000A11DB11DE3E0880F991FAA1FBB1FEA9545
:102BD000D1F7861B970B885E9340C8F22150304096
:102BE0004040504068517C4F211531054105510549
:102BF00071F60895789484B5826084BD84B581604F
:102C000084BD85B5826085BD85B5816085BDEEE6F4
:102C1000F0E0808181608083E1E8F0E010828081D3
:102C200082608083808181608083E0E8F0E0808141
:102C300081608083E1EBF0E0808184608083E0EB61
:102C4000F0E0808181608083EAE7F0E08081846049
:102C500080838081826080838081816080838081A5
:102C6000806880831092C1000895CF93DF93482F2E
:102C700050E0CA018F5D9E4FFC013491435F5E4F6F
:102C8000FA018491882369F190E0880F991FFC0173
:102C9000E151FF4FA591B491FC01E750FF4FC59161
:102CA000D491662351F42FB7F8948C91932F90957B
:102CB00089238C93888189230BC0623061F42FB7FC
:102CC000F8948C91932F909589238C938881832BF2
:102CD00088832FBF06C09FB7F8948C91832B8C9369
:102CE0009FBFDF91CF910895482F50E0CA018B5CC0
:102CF0009E4FFC012491CA018F5D9E4FFC0194916F
:102D0000435F5E4FFA013491332309F440C022231C
:102D100051F1233071F0243028F42130A1F0223019
:102D200011F514C02630B1F02730C1F02430D9F4A9
:102D300004C0809180008F7703C0809180008F7DD8
:102D40008093800010C084B58F7702C084B58F7DDA
:102D500084BD09C08091B0008F7703C08091B0001E
:102D60008F7D8093B000E32FF0E0EE0FFF1FE75060
:102D7000FF4FA591B4912FB7F894662321F48C915D
:102D80009095892302C08C91892B8C932FBF089535
:102D900008951F920F920FB60F9211242F933F9315
:102DA0004F938F939F93EF93FF938091C00082FD89
:102DB0001DC04091C6002091CE033091CF032F5FFC
:102DC0003F4F2F7330708091D0039091D10328171B
:102DD000390771F0E091CE03F091CF03E257FC4F39
:102DE00040833093CF032093CE0302C08091C6006E
:102DF000FF91EF919F918F914F913F912F910F9064
:102E00000FBE0F901F901895E0912204F0912304BB
:102E1000E05CFF4F8191919120813181821B930B66
:102E20008F739070892B11F00E94C81608951F921D
:102E30000F920FB60F9211242F933F938F939F936E
:102E4000EF93FF93209112043091130480911404A6
:102E5000909115042817390731F48091C1008F7DB6
:102E60008093C10014C0E0911404F0911504EE5257
:102E7000FC4F2081809114049091150401968F736A
:102E8000907090931504809314042093C600FF91D2
:102E9000EF919F918F913F912F910F900FBE0F90C7
:102EA0001F901895DC011C96ED91FC911D97E05C3C
:102EB000FF4F2191319180819181281B390B2F7314
:102EC0003070C9010895DC011C96ED91FC911D97AD
:102ED000E05CFF4F20813181E054F040DF01AE5BC8
:102EE000BF4F8D919C9111972817390719F42FEF37
:102EF0003FEF07C08D919C91E80FF91F8081282F2B
:102F000030E0C9010895DC011C96ED91FC911D97FC
:102F1000E05CFF4F20813181E054F040DF01AE5B87
:102F2000BF4F8D919C9111972817390719F42FEFF6
:102F30003FEF10C08D919C911197E80FF91F2081F0
:102F40008D919C91119701968F73907011969C931F
:102F50008E9330E0C9010895DC0191968C91919790
:102F6000882339F05496ED91FC915597808186FF26
:102F7000F9CF91961C920895CF93DF93EC01EE85E3
:102F8000FF85E05CFF4F20813181E054F0402F5FEE
:102F90003F4F2F733070DF01AE5BBF4F8D919C911F
:102FA000119728173907D1F3E05CFF4F8081918199
:102FB000E054F040E80FF91F6083EE85FF85E05C88
:102FC000FF4F31832083EE89FF89208181E090E0EB
:102FD0000F8C02C0880F991F0A94E2F7282B2083D8
:102FE00081E089A3EC89FD8980818064808381E010
:102FF00090E0DF91CF910895109219041092180477
:1030000088EE93E0A0E0B0E080931A0490931B0454
:10301000A0931C04B0931D048EEB91E090931704D1
:10302000809316048EE893E0909323048093220407
:1030300082ED93E0909325048093240485EC90E046
:10304000909327048093260484EC90E090932904C5
:103050008093280480EC90E090932B0480932A04C2
:1030600081EC90E090932D0480932C0482EC90E00E
:1030700090932F0480932E0486EC90E0909331047B
:103080008093300484E08093320483E0809333049F
:1030900087E08093340485E08093350481E0809359
:1030A00036040895CF92DF92EF92FF920F931F9311
:1030B000CF93DF937C016B018A01C0E0D0E00FC0A9
:1030C000D6016D916D01D701ED91FC910190F081D8
:1030D000E02DC7010995C80FD91F015010400115F7
:1030E000110571F7CE01DF91CF911F910F91FF90E4
:1030F000EF90DF90CF900895EF92FF920F931F9380
:103100008C01DC01ED91FC910190F081E02D6DE0EE
:1031100009957C01D801ED91FC910190F081E02DA1
:10312000C8016AE009959C012E0D3F1DC9011F9140
:103130000F91FF90EF900895CF93DF93EC0161150D
:10314000710519F420E030E00FC0DB010D90002084
:10315000E9F71197A61BB70BE881F9810280F3818B
:10316000E02DAD0109959C01C901DF91CF91089532
:10317000EF92FF920F931F937C010E949C188C0189
:10318000C7010E947C18080F191FC8011F910F91D9
:10319000FF90EF900895CF93DF930E94FA150E945D
:1031A000FB10C4E0D7E10E94E70F2097E1F30E94F3
:1031B0000417F9CF5058BB27AA270ED073C233D2B9
:1031C00030F038D220F031F49F3F11F41EF4F2C1F8
:1031D0000EF4E095E7FBE8C1E92F86D280F3BA1739
:1031E000620773078407950718F071F49EF59EC275
:1031F0000EF4E0950B2EBA2FA02D0B01B901900112
:103200000C01CA01A0011124FF27591B99F0593F55
:1032100050F4503E68F11A16F040A22F232F342F9D
:103220004427585FF3CF469537952795A795F040EB
:103230005395C9F77EF41F16BA0B620B730B840B00
:10324000BAF09150A1F0FF0FBB1F661F771F881FB8
:10325000C2F70EC0BA0F621F731F841F48F4879510
:1032600077956795B795F7959E3F08F0B3CF9395FF
:10327000880F08F09927EE0F9795879508959F93EB
:103280009F77EEE389379E0720F4E8E6F0E0BAD1B5
:1032900009C04BD19058A2EA2AED3FE049EC5FE328
:1032A0009BDF00D20F9007FC90580895BCD158F0D6
:1032B00080E891E009F49EEFBDD128F040E851E0AC
:1032C00059F45EEF09C076C131C2E92FE0780CD223
:1032D00068F3092E052AC1F326173707480759074F
:1032E00038F00E2E07F8E02569F0E025E0640AC00A
:1032F000EF6307F8009407FADB01B9019D01DC01D7
:10330000CA01AD01EF934AD0CDD10AD05F915523C8
:1033100031F02BED3FE049E450FD49EC4CCF0895EE
:10332000DF93DD27B92FBF7740E85FE31616170656
:1033300048075B0710F4D92F04D29F938F937F9394
:103340006F93BDD2ECE7F0E038D1ACD12F913F9133
:103350004F915F9109D2DD2349F09058A2EA2AEDFE
:103360003FE049EC5FE3D0785D2736DFDF919AC11B
:10337000F7D008F481E0089565D1E395A4C10CD09D
:1033800091C158D140F04FD130F021F45F3F19F096
:103390000BC15111CCC10EC1A7D198F39923C9F328
:1033A0005523B1F3951B550BBB27AA27621773074B
:1033B000840738F09F5F5F4F220F331F441FAA1FFF
:1033C000A9F333D00E2E3AF0E0E830D091505040BF
:1033D000E695001CCAF729D0FE2F27D0660F771F6D
:1033E000881FBB1F261737074807AB07B0E809F04F
:1033F000BB0B802DBF01FF2793585F4F2AF09E3FE4
:10340000510568F0D1C093C15F3FECF3983EDCF307
:10341000869577956795B795F7959F5FC9F7880F5C
:10342000911D9695879597F90895E1E0660F771FAE
:10343000881FBB1F621773078407BA0720F0621B3F
:10344000730B840BBA0BEE1F88F7E095089504D038
:103450006894B1116CC108954FD188F09F5790F0D6
:10346000B92F9927B751A0F0D1F0660F771F881FA9
:10347000991F1AF0BA95C9F712C0B13081F056D130
:10348000B1E0089553C1672F782F8827B85F39F0CE
:10349000B93FCCF3869577956795B395D9F73EF408
:1034A00090958095709561957F4F8F4F9F4F0895B0
:1034B000E89409C097FB3EF49095809570956195CE
:1034C0007F4F8F4F9F4F9923A9F0F92F96E9BB2784
:1034D0009395F695879577956795B795F111F8CF00
:1034E000FAF4BB0F11F460FF1BC06F5F7F4F8F4F6B
:1034F0009F4F16C0882311F096E911C0772321F061
:103500009EE8872F762F05C0662371F096E8862FF8
:1035100070E060E02AF09A95660F771F881FDAF74F
:10352000880F9695879597F90895DF93CF931F930A
:103530000F938B01EC01E9EAF0E03FD0B3D09801A2
:10354000AE018B01EC0160E070E080E89FE332DEC9
:103550006CD19801AE010F911F91CF91DF9104C101
:10356000990F0008550FAA0BE0E8FEEF1616170694
:10357000E807F907C0F012161306E407F50798F0FC
:10358000621B730B840B950B39F40A2661F0232B15
:10359000242B252B21F408950A2609F4A140A69591
:1035A0008FEF811D811D089597F99F6780E870E076
:1035B00060E008959FEF80EC0895DF93CF931F9311
:1035C0000F93FF92EF92DF927B018C01689405C00C
:1035D000DA2EEF01C9D0FE01E894A591259135912D
:1035E00045915591AEF3EF01F7DDFE019701A8017A
:1035F000DA9479F7DF90EF90FF900F911F91CF91C0
:10360000DF9108959F938F937F936F93FF93EF9331
:103610009B01AC019DD0EF91FF91CFDF2F913F91A6
:103620004F915F9195C000240A941616170618064C
:103630000906089500240A941216130614060506B6
:103640000895B8CF59D0E8F3E894EFEFBB273FE0F7
:1036500048EC5FE76B3D73078407950708F1FF2788
:103660009F57B25A6A4D7F40894CF04032F4BE55A4
:103670006542704F8643FF4F0894EE1F915030F023
:10368000BB0F661F771F881FFF1FEBCF9EE78823A6
:1036900032F0BB0F661F771F881F9A95C1F793956D
:1036A000E09510C1092E0394000C11F4882352F008
:1036B000BB0F40F4BF2B11F460FF04C06F5F7F4F5E
:1036C0008F4F9F4F0895EF93E0FF06C0A2EA2AEDC7
:1036D0003FE049EC5FEB80DDE5DF0F90039401FCF8
:1036E0009058E1EDF0E08ECF57FD9058440F551FF4
:1036F00059F05F3F71F04795880F97FB991F61F074
:103700009F3F79F087950895121613061406551FEA
:10371000F2CF4695F1DF08C0161617061806991F56
:10372000F1CF86957105610508940895E894BB274B
:1037300066277727CB0197F9089512DF08F48FEFFA
:1037400008959B01AC0160E070E080E89FE317CE34
:103750000BD0A8CF68DF28F06DDF18F0952309F0B3
:1037600023CF28CF1124E3CFBFDFA0F3959FD1F360
:10377000950F50E0551F629FF001729FBB27F00D1F
:10378000B11D639FAA27F00DB11DAA1F649F662774
:10379000B00DA11D661F829F2227B00DA11D621FC3
:1037A000739FB00DA11D621F839FA00D611D221F7D
:1037B000749F3327A00D611D231F849F600D211D61
:1037C000822F762F6A2F11249F5750408AF0E1F004
:1037D00088234AF0EE0FFF1FBB1F661F771F881F4D
:1037E00091505040A9F79E3F510570F0DDCE9FCF1C
:1037F0005F3FECF3983EDCF3869577956795B79538
:10380000F795E7959F5FC1F7FE2B880F911D969561
:10381000879597F908959F9315DF0F9007FCEE5F4A
:1038200052CF11F40EF4C6CE4DC066DFD0F399230B
:10383000D9F3CEF39F57550B87FF54D056959795E4
:10384000B0E020F4660F771F881FBB1F1F930F93F4
:1038500000249001A0018001F001A0E80E0F1F1FBD
:103860000A1E511D601B710B8009B50B48F4600FD7
:10387000711F801DB51F0E1B1F0B0A0A510907C0BF
:103880002E0F3F1F4A1F0E0F1F1F0A1E511D660FCE
:10389000771F881FBB1FA695F795E795F8F60617C3
:1038A000170708065B07211D311D411D0F911F9150
:1038B000B901842F9158880F9695879508959B019B
:1038C000AC0146CF9F3F49F0915028F486957795FB
:1038D0006795B7959F5F80389F4F880F969587951E
:1038E00097F9089591505040660F771F881FD2F7BF
:1038F000089597FB092E07260AD077FD04D00CD037
:1039000006D000201AF4709561957F4F0895F6F760
:10391000909581959F4F0895AA1BBB1B51E107C04D
:10392000AA1FBB1FA617B70710F0A61BB70B881F4F
:10393000991F5A95A9F780959095BC01CD010895DE
:10394000EE0FFF1F0590F491E02D09942F923F9206
:103950004F925F926F927F928F929F92AF92BF929F
:10396000CF92DF92EF92FF920F931F93CF93DF934B
:10397000CDB7DEB7CA1BDB0B0FB6F894DEBF0FBEA8
:10398000CDBF09942A88398848885F846E847D84F5
:103990008C849B84AA84B984C884DF80EE80FD80F7
:1039A0000C811B81AA81B981CE0FD11D0FB6F8946D
:0E39B000DEBF0FBECDBFED010895F894FFCF2E
:1039BE002100414E473A002C002C414E3A00214541
:1039CE0052523A204D616720646174610021455264
:1039DE00523A2041636320646174610053706172D6
:1039EE006B66756E2039444F462052617A6F722095
:1039FE004148525300010200FFFF0100FFFF01008A
:103A0E0001000100FFFFFFFFFFFF0AD7A33C0000EC
:103A1E00803F0000000000000000000000000000D9
:103A2E00803F0000000000000000000000000000C9
:103A3E00803F000000000000803F000000400000BA
:103A4E004040000080400000A0400000C040000048
:103A5E00E0400000004153001E00000000004C1228
:103A6E001B12D411DD11F211031200000000BC175D
:0A3A7E005218521783176317AC1794
:00000001FF
